{
  "address": "0x0DCd1Bf9A1b36cE34237eEaFef220932846BCD82",
  "abi": [
    {
      "inputs": [
        {
          "internalType": "address",
          "name": "oracleAddress",
          "type": "address"
        }
      ],
      "stateMutability": "nonpayable",
      "type": "constructor"
    },
    {
      "inputs": [
        {
          "internalType": "address",
          "name": "owner",
          "type": "address"
        }
      ],
      "name": "OwnableInvalidOwner",
      "type": "error"
    },
    {
      "inputs": [
        {
          "internalType": "address",
          "name": "account",
          "type": "address"
        }
      ],
      "name": "OwnableUnauthorizedAccount",
      "type": "error"
    },
    {
      "inputs": [],
      "name": "ReentrancyGuardReentrantCall",
      "type": "error"
    },
    {
      "anonymous": false,
      "inputs": [
        {
          "indexed": true,
          "internalType": "address",
          "name": "user",
          "type": "address"
        },
        {
          "indexed": false,
          "internalType": "uint256",
          "name": "amount",
          "type": "uint256"
        }
      ],
      "name": "Deposited",
      "type": "event"
    },
    {
      "anonymous": false,
      "inputs": [
        {
          "indexed": true,
          "internalType": "address",
          "name": "borrower",
          "type": "address"
        },
        {
          "indexed": false,
          "internalType": "uint256",
          "name": "amount",
          "type": "uint256"
        },
        {
          "indexed": false,
          "internalType": "uint256",
          "name": "aprBps",
          "type": "uint256"
        },
        {
          "indexed": false,
          "internalType": "uint256",
          "name": "due",
          "type": "uint256"
        }
      ],
      "name": "LoanIssued",
      "type": "event"
    },
    {
      "anonymous": false,
      "inputs": [
        {
          "indexed": true,
          "internalType": "address",
          "name": "oracle",
          "type": "address"
        }
      ],
      "name": "OracleUpdated",
      "type": "event"
    },
    {
      "anonymous": false,
      "inputs": [
        {
          "indexed": true,
          "internalType": "address",
          "name": "previousOwner",
          "type": "address"
        },
        {
          "indexed": true,
          "internalType": "address",
          "name": "newOwner",
          "type": "address"
        }
      ],
      "name": "OwnershipTransferred",
      "type": "event"
    },
    {
      "anonymous": false,
      "inputs": [
        {
          "indexed": true,
          "internalType": "address",
          "name": "borrower",
          "type": "address"
        },
        {
          "indexed": false,
          "internalType": "uint256",
          "name": "principal",
          "type": "uint256"
        },
        {
          "indexed": false,
          "internalType": "uint256",
          "name": "interest",
          "type": "uint256"
        },
        {
          "indexed": false,
          "internalType": "uint256",
          "name": "paid",
          "type": "uint256"
        }
      ],
      "name": "Repaid",
      "type": "event"
    },
    {
      "anonymous": false,
      "inputs": [
        {
          "indexed": true,
          "internalType": "address",
          "name": "user",
          "type": "address"
        },
        {
          "indexed": false,
          "internalType": "uint256",
          "name": "amount",
          "type": "uint256"
        }
      ],
      "name": "Withdrawn",
      "type": "event"
    },
    {
      "inputs": [],
      "name": "deposit",
      "outputs": [],
      "stateMutability": "payable",
      "type": "function"
    },
    {
      "inputs": [
        {
          "internalType": "address",
          "name": "",
          "type": "address"
        }
      ],
      "name": "depositOf",
      "outputs": [
        {
          "internalType": "uint256",
          "name": "",
          "type": "uint256"
        }
      ],
      "stateMutability": "view",
      "type": "function"
    },
    {
      "inputs": [
        {
          "internalType": "address",
          "name": "",
          "type": "address"
        }
      ],
      "name": "loanOf",
      "outputs": [
        {
          "internalType": "uint256",
          "name": "principal",
          "type": "uint256"
        },
        {
          "internalType": "uint256",
          "name": "aprBps",
          "type": "uint256"
        },
        {
          "internalType": "uint64",
          "name": "start",
          "type": "uint64"
        },
        {
          "internalType": "uint64",
          "name": "due",
          "type": "uint64"
        },
        {
          "internalType": "bool",
          "name": "active",
          "type": "bool"
        }
      ],
      "stateMutability": "view",
      "type": "function"
    },
    {
      "inputs": [],
      "name": "oracle",
      "outputs": [
        {
          "internalType": "contract ICreditOracle",
          "name": "",
          "type": "address"
        }
      ],
      "stateMutability": "view",
      "type": "function"
    },
    {
      "inputs": [],
      "name": "owner",
      "outputs": [
        {
          "internalType": "address",
          "name": "",
          "type": "address"
        }
      ],
      "stateMutability": "view",
      "type": "function"
    },
    {
      "inputs": [
        {
          "internalType": "address",
          "name": "borrower",
          "type": "address"
        }
      ],
      "name": "quoteOwed",
      "outputs": [
        {
          "internalType": "uint256",
          "name": "principal",
          "type": "uint256"
        },
        {
          "internalType": "uint256",
          "name": "interest",
          "type": "uint256"
        },
        {
          "internalType": "uint256",
          "name": "total",
          "type": "uint256"
        }
      ],
      "stateMutability": "view",
      "type": "function"
    },
    {
      "inputs": [],
      "name": "renounceOwnership",
      "outputs": [],
      "stateMutability": "nonpayable",
      "type": "function"
    },
    {
      "inputs": [],
      "name": "repay",
      "outputs": [],
      "stateMutability": "payable",
      "type": "function"
    },
    {
      "inputs": [
        {
          "internalType": "uint256",
          "name": "amount",
          "type": "uint256"
        },
        {
          "internalType": "uint64",
          "name": "minDueAt",
          "type": "uint64"
        }
      ],
      "name": "requestLoan",
      "outputs": [],
      "stateMutability": "nonpayable",
      "type": "function"
    },
    {
      "inputs": [
        {
          "internalType": "address",
          "name": "token",
          "type": "address"
        },
        {
          "internalType": "address",
          "name": "to",
          "type": "address"
        },
        {
          "internalType": "uint256",
          "name": "amount",
          "type": "uint256"
        }
      ],
      "name": "rescueERC20",
      "outputs": [],
      "stateMutability": "nonpayable",
      "type": "function"
    },
    {
      "inputs": [
        {
          "internalType": "contract ICreditOracle",
          "name": "_oracle",
          "type": "address"
        }
      ],
      "name": "setOracle",
      "outputs": [],
      "stateMutability": "nonpayable",
      "type": "function"
    },
    {
      "inputs": [],
      "name": "totalActivePrincipal",
      "outputs": [
        {
          "internalType": "uint256",
          "name": "",
          "type": "uint256"
        }
      ],
      "stateMutability": "view",
      "type": "function"
    },
    {
      "inputs": [],
      "name": "totalDeposits",
      "outputs": [
        {
          "internalType": "uint256",
          "name": "",
          "type": "uint256"
        }
      ],
      "stateMutability": "view",
      "type": "function"
    },
    {
      "inputs": [
        {
          "internalType": "address",
          "name": "newOwner",
          "type": "address"
        }
      ],
      "name": "transferOwnership",
      "outputs": [],
      "stateMutability": "nonpayable",
      "type": "function"
    },
    {
      "inputs": [
        {
          "internalType": "uint256",
          "name": "amount",
          "type": "uint256"
        }
      ],
      "name": "withdraw",
      "outputs": [],
      "stateMutability": "nonpayable",
      "type": "function"
    },
    {
      "stateMutability": "payable",
      "type": "receive"
    }
  ],
  "transactionHash": "0x09c35247305d8b223bab5ea6da39efc0ecbf75fe02cc34b59ffbd1c66169b60e",
  "args": [
    "0xA51c1fc2f0D1a1b8494Ed1FE312d7C3a78Ed91C0"
  ],
  "numDeployments": 1,
  "solcInputHash": "72e764f64c328b2f92954496f47a6c42",
  "bytecode": "0x608060405234801561001057600080fd5b506040516112f93803806112f983398101604081905261002f91610100565b338061005557604051631e4fbdf760e01b81526000600482015260240160405180910390fd5b61005e816100b0565b5060018055600280546001600160a01b0319166001600160a01b0383169081179091556040517f3df77beb5db05fcdd70a30fc8adf3f83f9501b68579455adbd100b818094039490600090a250610130565b600080546001600160a01b038381166001600160a01b0319831681178455604051919092169283917f8be0079c531659141344cd1fd0a4f28419497f9722a3daafe3b4186f6b6457e09190a35050565b60006020828403121561011257600080fd5b81516001600160a01b038116811461012957600080fd5b9392505050565b6111ba8061013f6000396000f3fe6080604052600436106100ec5760003560e01c80637d8820971161008a578063d0e30db011610059578063d0e30db014610261578063dc550b1b14610269578063df980842146102fe578063f2fde38b1461033957600080fd5b80637d882097146101d55780637dc0d1d0146101eb5780638da5cb5b14610223578063b2118a8d1461024157600080fd5b806366d595e4116100c657806366d595e41461016a57806370e7955214610180578063715018a6146101a05780637adbf973146101b557600080fd5b806323e3fbd5146101025780632e1a7d4d14610142578063402d88831461016257600080fd5b366100fd576100fb3334610359565b005b600080fd5b34801561010e57600080fd5b5061012f61011d366004610f8a565b60036020526000908152604090205481565b6040519081526020015b60405180910390f35b34801561014e57600080fd5b506100fb61015d366004610fae565b6103e1565b6100fb6105c9565b34801561017657600080fd5b5061012f60065481565b34801561018c57600080fd5b506100fb61019b366004610fc7565b6107ae565b3480156101ac57600080fd5b506100fb610bb2565b3480156101c157600080fd5b506100fb6101d0366004610f8a565b610bc4565b3480156101e157600080fd5b5061012f60045481565b3480156101f757600080fd5b5060025461020b906001600160a01b031681565b6040516001600160a01b039091168152602001610139565b34801561022f57600080fd5b506000546001600160a01b031661020b565b34801561024d57600080fd5b506100fb61025c366004611004565b610c16565b6100fb610d2b565b34801561027557600080fd5b506102c7610284366004610f8a565b60056020526000908152604090208054600182015460029092015490919067ffffffffffffffff80821691600160401b810490911690600160801b900460ff1685565b60408051958652602086019490945267ffffffffffffffff928316938501939093521660608301521515608082015260a001610139565b34801561030a57600080fd5b5061031e610319366004610f8a565b610d81565b60408051938452602084019290925290820152606001610139565b34801561034557600080fd5b506100fb610354366004610f8a565b610e93565b6001600160a01b0382166000908152600360205260408120805483929061038190849061105b565b92505081905550806004600082825461039a919061105b565b90915550506040518181526001600160a01b038316907f2da466a7b24304f47e87fa2e1e5a81b9831ce54fec19055ce277ca2f39ba42c49060200160405180910390a25050565b6103e9610ece565b6000811161042a5760405162461bcd60e51b81526020600482015260096024820152681393d7d05353d5539560ba1b60448201526064015b60405180910390fd5b33600090815260036020526040902054818110156104815760405162461bcd60e51b8152602060048201526014602482015273125394d551919250d251539517d1115413d4d25560621b6044820152606401610421565b814710156104ca5760405162461bcd60e51b8152602060048201526016602482015275494e53554646494349454e545f4c495155494449545960501b6044820152606401610421565b6104d48282611074565b33600090815260036020526040812091909155600480548492906104f9908490611074565b9091555050604051600090339084908381818185875af1925050503d8060008114610540576040519150601f19603f3d011682016040523d82523d6000602084013e610545565b606091505b50509050806105865760405162461bcd60e51b815260206004820152600d60248201526c15d2551211149055d7d1905253609a1b6044820152606401610421565b60405183815233907f7084f5476618d8e60b11ef0d7d3f06914655adb8793e28ff7f018d4c76d505d59060200160405180910390a250506105c660018055565b50565b6105d1610ece565b3360009081526005602052604090206002810154600160801b900460ff166106255760405162461bcd60e51b81526020600482015260076024820152662727afa627a0a760c91b6044820152606401610421565b600080600061063333610d81565b9250925092508034101561067e5760405162461bcd60e51b8152602060048201526012602482015271494e53554646494349454e545f524550415960701b6044820152606401610421565b60028401805460008087556001870181905570ffffffffffffffffffffffffffffffffff19909116909155600680548592906106bb908490611074565b909155505060408051848152602081018490523481830152905133917f07178c166b5aef4d8409e6bbfd0e7b1ad42c92eb65903a5e5482166f3f4e62f0919081900360600190a2600061070e8234611074565b9050801561079e57604051600090339083908381818185875af1925050503d8060008114610758576040519150601f19603f3d011682016040523d82523d6000602084013e61075d565b606091505b505090508061079c5760405162461bcd60e51b815260206004820152600b60248201526a14915195539117d190525360aa1b6044820152606401610421565b505b50505050506107ac60018055565b565b6107b6610ece565b600082116107f25760405162461bcd60e51b81526020600482015260096024820152681393d7d05353d5539560ba1b6044820152606401610421565b3360009081526005602052604090206002810154600160801b900460ff161561084b5760405162461bcd60e51b815260206004820152600b60248201526a4c4f414e5f41435449564560a81b6044820152606401610421565b60025460405163233c4ddb60e21b8152336004820152602481018590526000918291829182916001600160a01b0390911690638cf1376c90604401608060405180830381865afa1580156108a3573d6000803e3d6000fd5b505050506040513d601f19601f820116820180604052508101906108c7919061109c565b9350935093509350836109135760405162461bcd60e51b81526020600482015260146024820152731093d49493d5d15497d393d517d0531313d5d15160621b6044820152606401610421565b8287111561094f5760405162461bcd60e51b8152602060048201526009602482015268082849eac8abe9a82b60bb1b6044820152606401610421565b6000821161098a5760405162461bcd60e51b81526020600482015260086024820152674150525f5a45524f60c01b6044820152606401610421565b600081116109c55760405162461bcd60e51b81526020600482015260086024820152674455525f5a45524f60c01b6044820152606401610421565b4260006109d283836110d9565b90508767ffffffffffffffff168167ffffffffffffffff161015610a275760405162461bcd60e51b815260206004820152600c60248201526b222aa2afaa27a7afa9a7a7a760a11b6044820152606401610421565b88471015610a635760405162461bcd60e51b815260206004820152600960248201526842414e4b5f494c4c5160b81b6044820152606401610421565b8887556001870184905560028701805460ff60801b1967ffffffffffffffff848116600160401b026fffffffffffffffffffffffffffffffff19909316908616179190911716600160801b179055600680548a9190600090610ac690849061105b565b909155505060405160009033908b908381818185875af1925050503d8060008114610b0d576040519150601f19603f3d011682016040523d82523d6000602084013e610b12565b606091505b5050905080610b515760405162461bcd60e51b815260206004820152600b60248201526a14105653d55517d190525360aa1b6044820152606401610421565b604080518b81526020810187905267ffffffffffffffff841681830152905133917f03cd57c87bbf542b3c5edcc7801148ea7d9a169cb16849e0a523ea18eadc58d3919081900360600190a25050505050505050610bae60018055565b5050565b610bba610ef8565b6107ac6000610f25565b610bcc610ef8565b600280546001600160a01b0319166001600160a01b0383169081179091556040517f3df77beb5db05fcdd70a30fc8adf3f83f9501b68579455adbd100b818094039490600090a250565b610c1e610ef8565b6040516001600160a01b03838116602483015260448201839052600091829186169060640160408051601f198184030181529181526020820180516001600160e01b031663a9059cbb60e01b17905251610c789190611101565b6000604051808303816000865af19150503d8060008114610cb5576040519150601f19603f3d011682016040523d82523d6000602084013e610cba565b606091505b5091509150818015610ce4575080511580610ce4575080806020019051810190610ce49190611130565b610d245760405162461bcd60e51b8152602060048201526011602482015270115490cc8c17d49154d0d55157d1905253607a1b6044820152606401610421565b5050505050565b610d33610ece565b60003411610d6e5760405162461bcd60e51b81526020600482015260086024820152674e4f5f56414c554560c01b6044820152606401610421565b610d783334610359565b6107ac60018055565b6001600160a01b0381166000908152600560209081526040808320815160a081018352815481526001820154938101939093526002015467ffffffffffffffff80821692840192909252600160401b81049091166060830152600160801b900460ff1615156080820181905282918291610e0657600080600093509350935050610e8c565b806000015193506000816040015167ffffffffffffffff164211610e2b576000610e44565b6040820151610e449067ffffffffffffffff1642611074565b9050610e566301e1338061271061114b565b81836020015187610e67919061114b565b610e71919061114b565b610e7b9190611162565b9350610e87848661105b565b925050505b9193909250565b610e9b610ef8565b6001600160a01b038116610ec557604051631e4fbdf760e01b815260006004820152602401610421565b6105c681610f25565b600260015403610ef157604051633ee5aeb560e01b815260040160405180910390fd5b6002600155565b6000546001600160a01b031633146107ac5760405163118cdaa760e01b8152336004820152602401610421565b600080546001600160a01b038381166001600160a01b0319831681178455604051919092169283917f8be0079c531659141344cd1fd0a4f28419497f9722a3daafe3b4186f6b6457e09190a35050565b6001600160a01b03811681146105c657600080fd5b600060208284031215610f9c57600080fd5b8135610fa781610f75565b9392505050565b600060208284031215610fc057600080fd5b5035919050565b60008060408385031215610fda57600080fd5b82359150602083013567ffffffffffffffff81168114610ff957600080fd5b809150509250929050565b60008060006060848603121561101957600080fd5b833561102481610f75565b9250602084013561103481610f75565b929592945050506040919091013590565b634e487b7160e01b600052601160045260246000fd5b8082018082111561106e5761106e611045565b92915050565b8181038181111561106e5761106e611045565b8051801515811461109757600080fd5b919050565b600080600080608085870312156110b257600080fd5b6110bb85611087565b60208601516040870151606090970151919890975090945092505050565b67ffffffffffffffff8181168382160190808211156110fa576110fa611045565b5092915050565b6000825160005b818110156111225760208186018101518583015201611108565b506000920191825250919050565b60006020828403121561114257600080fd5b610fa782611087565b808202811582820484141761106e5761106e611045565b60008261117f57634e487b7160e01b600052601260045260246000fd5b50049056fea26469706673582212206bb357f8de63e8df1ad1057c413faaf5953e15fa911d3c5f93d64b24de1045af64736f6c63430008140033",
  "devdoc": {
    "errors": {
      "OwnableInvalidOwner(address)": [
        {
          "details": "The owner is not a valid owner account. (eg. `address(0)`)"
        }
      ],
      "OwnableUnauthorizedAccount(address)": [
        {
          "details": "The caller account is not authorized to perform an operation."
        }
      ],
      "ReentrancyGuardReentrantCall()": [
        {
          "details": "Unauthorized reentrant call."
        }
      ]
    },
    "kind": "dev",
    "methods": {
      "owner()": {
        "details": "Returns the address of the current owner."
      },
      "renounceOwnership()": {
        "details": "Leaves the contract without owner. It will not be possible to call `onlyOwner` functions. Can only be called by the current owner. NOTE: Renouncing ownership will leave the contract without an owner, thereby disabling any functionality that is only available to the owner."
      },
      "requestLoan(uint256,uint64)": {
        "params": {
          "amount": "Amount of XRP (wei) requested",
          "minDueAt": "Borrowers minimum acceptable due timestamp (protects against unexpectedly short durations)"
        }
      },
      "transferOwnership(address)": {
        "details": "Transfers ownership of the contract to a new account (`newOwner`). Can only be called by the current owner."
      }
    },
    "version": 1
  },
  "userdoc": {
    "kind": "user",
    "methods": {
      "deposit()": {
        "notice": "Explicit deposit"
      },
      "quoteOwed(address)": {
        "notice": "View function to compute current interest & total owed."
      },
      "repay()": {
        "notice": "Repay the loan in full. Excess is refunded."
      },
      "requestLoan(uint256,uint64)": {
        "notice": "Request a loan; terms come from oracle. One active loan per borrower."
      },
      "rescueERC20(address,address,uint256)": {
        "notice": "Sweep accidental ERC20s or tokens sent to this contract (not XRP)."
      },
      "withdraw(uint256)": {
        "notice": "Withdraw depositors available funds (limited by contract liquidity)"
      }
    },
    "notice": "Simple bank that accepts XRP and issues uncollateralized loans based on an oracle.",
    "version": 1
  },
  "storageLayout": {
    "storage": [
      {
        "astId": 8,
        "contract": "contracts/XRPBank.sol:XRPBank",
        "label": "_owner",
        "offset": 0,
        "slot": "0",
        "type": "t_address"
      },
      {
        "astId": 188,
        "contract": "contracts/XRPBank.sol:XRPBank",
        "label": "_status",
        "offset": 0,
        "slot": "1",
        "type": "t_uint256"
      },
      {
        "astId": 293,
        "contract": "contracts/XRPBank.sol:XRPBank",
        "label": "oracle",
        "offset": 0,
        "slot": "2",
        "type": "t_contract(ICreditOracle)266"
      },
      {
        "astId": 297,
        "contract": "contracts/XRPBank.sol:XRPBank",
        "label": "depositOf",
        "offset": 0,
        "slot": "3",
        "type": "t_mapping(t_address,t_uint256)"
      },
      {
        "astId": 299,
        "contract": "contracts/XRPBank.sol:XRPBank",
        "label": "totalDeposits",
        "offset": 0,
        "slot": "4",
        "type": "t_uint256"
      },
      {
        "astId": 304,
        "contract": "contracts/XRPBank.sol:XRPBank",
        "label": "loanOf",
        "offset": 0,
        "slot": "5",
        "type": "t_mapping(t_address,t_struct(Loan)290_storage)"
      },
      {
        "astId": 306,
        "contract": "contracts/XRPBank.sol:XRPBank",
        "label": "totalActivePrincipal",
        "offset": 0,
        "slot": "6",
        "type": "t_uint256"
      }
    ],
    "types": {
      "t_address": {
        "encoding": "inplace",
        "label": "address",
        "numberOfBytes": "20"
      },
      "t_bool": {
        "encoding": "inplace",
        "label": "bool",
        "numberOfBytes": "1"
      },
      "t_contract(ICreditOracle)266": {
        "encoding": "inplace",
        "label": "contract ICreditOracle",
        "numberOfBytes": "20"
      },
      "t_mapping(t_address,t_struct(Loan)290_storage)": {
        "encoding": "mapping",
        "key": "t_address",
        "label": "mapping(address => struct XRPBank.Loan)",
        "numberOfBytes": "32",
        "value": "t_struct(Loan)290_storage"
      },
      "t_mapping(t_address,t_uint256)": {
        "encoding": "mapping",
        "key": "t_address",
        "label": "mapping(address => uint256)",
        "numberOfBytes": "32",
        "value": "t_uint256"
      },
      "t_struct(Loan)290_storage": {
        "encoding": "inplace",
        "label": "struct XRPBank.Loan",
        "members": [
          {
            "astId": 281,
            "contract": "contracts/XRPBank.sol:XRPBank",
            "label": "principal",
            "offset": 0,
            "slot": "0",
            "type": "t_uint256"
          },
          {
            "astId": 283,
            "contract": "contracts/XRPBank.sol:XRPBank",
            "label": "aprBps",
            "offset": 0,
            "slot": "1",
            "type": "t_uint256"
          },
          {
            "astId": 285,
            "contract": "contracts/XRPBank.sol:XRPBank",
            "label": "start",
            "offset": 0,
            "slot": "2",
            "type": "t_uint64"
          },
          {
            "astId": 287,
            "contract": "contracts/XRPBank.sol:XRPBank",
            "label": "due",
            "offset": 8,
            "slot": "2",
            "type": "t_uint64"
          },
          {
            "astId": 289,
            "contract": "contracts/XRPBank.sol:XRPBank",
            "label": "active",
            "offset": 16,
            "slot": "2",
            "type": "t_bool"
          }
        ],
        "numberOfBytes": "96"
      },
      "t_uint256": {
        "encoding": "inplace",
        "label": "uint256",
        "numberOfBytes": "32"
      },
      "t_uint64": {
        "encoding": "inplace",
        "label": "uint64",
        "numberOfBytes": "8"
      }
    }
  }
}